{
  "contractName": "Marketplace",
  "abi": [
    {
      "constant": true,
      "inputs": [],
      "name": "name",
      "outputs": [
        {
          "name": "",
          "type": "string"
        }
      ],
      "payable": false,
      "stateMutability": "view",
      "type": "function",
      "signature": "0x06fdde03"
    },
    {
      "constant": true,
      "inputs": [
        {
          "name": "",
          "type": "uint256"
        }
      ],
      "name": "products",
      "outputs": [
        {
          "name": "id",
          "type": "uint256"
        },
        {
          "name": "name",
          "type": "string"
        },
        {
          "name": "price",
          "type": "uint256"
        }
      ],
      "payable": false,
      "stateMutability": "view",
      "type": "function",
      "signature": "0x7acc0b20"
    },
    {
      "constant": true,
      "inputs": [],
      "name": "owner",
      "outputs": [
        {
          "name": "",
          "type": "address"
        }
      ],
      "payable": false,
      "stateMutability": "view",
      "type": "function",
      "signature": "0x8da5cb5b"
    },
    {
      "constant": true,
      "inputs": [],
      "name": "productCount",
      "outputs": [
        {
          "name": "",
          "type": "uint256"
        }
      ],
      "payable": false,
      "stateMutability": "view",
      "type": "function",
      "signature": "0xe0f6ef87"
    },
    {
      "inputs": [],
      "payable": false,
      "stateMutability": "nonpayable",
      "type": "constructor",
      "signature": "constructor"
    },
    {
      "anonymous": false,
      "inputs": [
        {
          "indexed": false,
          "name": "id",
          "type": "uint256"
        },
        {
          "indexed": false,
          "name": "name",
          "type": "string"
        },
        {
          "indexed": false,
          "name": "price",
          "type": "uint256"
        }
      ],
      "name": "ProductCreated",
      "type": "event",
      "signature": "0x418d4005ee80a6584eef7f51de08850f7f79c3e7b464f15ef3f236423d964b08"
    },
    {
      "anonymous": false,
      "inputs": [
        {
          "indexed": false,
          "name": "id",
          "type": "uint256"
        },
        {
          "indexed": false,
          "name": "name",
          "type": "string"
        },
        {
          "indexed": false,
          "name": "price",
          "type": "uint256"
        }
      ],
      "name": "ProductPurchased",
      "type": "event",
      "signature": "0xa3b4a36767461104bd3c1561170fdd7223732be4f938fb7d8bdfa58a7271c72b"
    },
    {
      "constant": false,
      "inputs": [
        {
          "name": "_name",
          "type": "string"
        },
        {
          "name": "_price",
          "type": "uint256"
        }
      ],
      "name": "createProduct",
      "outputs": [],
      "payable": false,
      "stateMutability": "nonpayable",
      "type": "function",
      "signature": "0xe9300c6c"
    },
    {
      "constant": false,
      "inputs": [
        {
          "name": "_id",
          "type": "uint256"
        }
      ],
      "name": "receiveProductAndPay",
      "outputs": [],
      "payable": true,
      "stateMutability": "payable",
      "type": "function",
      "signature": "0x2d6e9143"
    },
    {
      "constant": false,
      "inputs": [
        {
          "name": "_user",
          "type": "uint256"
        }
      ],
      "name": "rewardCoinsToUser",
      "outputs": [],
      "payable": true,
      "stateMutability": "payable",
      "type": "function",
      "signature": "0x98388af6"
    }
  ],
  "bytecode": "0x6080604052600060025534801561001557600080fd5b506040805190810160405280601281526020017f4f2d54776f206d61726b657420706c6163650000000000000000000000000000815250600090805190602001906100619291906100a8565b5033600160006101000a81548173ffffffffffffffffffffffffffffffffffffffff021916908373ffffffffffffffffffffffffffffffffffffffff16021790555061014d565b828054600181600116156101000203166002900490600052602060002090601f016020900481019282601f106100e957805160ff1916838001178555610117565b82800160010185558215610117579182015b828111156101165782518255916020019190600101906100fb565b5b5090506101249190610128565b5090565b61014a91905b8082111561014657600081600090555060010161012e565b5090565b90565b610ad08061015c6000396000f3fe608060405260043610610083576000357c0100000000000000000000000000000000000000000000000000000000900463ffffffff16806306fdde03146100885780632d6e9143146101185780637acc0b20146101465780638da5cb5b1461020857806398388af61461025f578063e0f6ef871461028d578063e9300c6c146102b8575b600080fd5b34801561009457600080fd5b5061009d61038a565b6040518080602001828103825283818151815260200191508051906020019080838360005b838110156100dd5780820151818401526020810190506100c2565b50505050905090810190601f16801561010a5780820380516001836020036101000a031916815260200191505b509250505060405180910390f35b6101446004803603602081101561012e57600080fd5b8101908080359060200190929190505050610428565b005b34801561015257600080fd5b5061017f6004803603602081101561016957600080fd5b81019080803590602001909291905050506106a3565b6040518084815260200180602001838152602001828103825284818151815260200191508051906020019080838360005b838110156101cb5780820151818401526020810190506101b0565b50505050905090810190601f1680156101f85780820380516001836020036101000a031916815260200191505b5094505050505060405180910390f35b34801561021457600080fd5b5061021d610765565b604051808273ffffffffffffffffffffffffffffffffffffffff1673ffffffffffffffffffffffffffffffffffffffff16815260200191505060405180910390f35b61028b6004803603602081101561027557600080fd5b810190808035906020019092919050505061078b565b005b34801561029957600080fd5b506102a2610831565b6040518082815260200191505060405180910390f35b3480156102c457600080fd5b50610388600480360360408110156102db57600080fd5b81019080803590602001906401000000008111156102f857600080fd5b82018360208201111561030a57600080fd5b8035906020019184600183028401116401000000008311171561032c57600080fd5b91908080601f016020809104026020016040519081016040528093929190818152602001838380828437600081840152601f19601f82011690508083019250505050505050919291929080359060200190929190505050610837565b005b60008054600181600116156101000203166002900480601f0160208091040260200160405190810160405280929190818152602001828054600181600116156101000203166002900480156104205780601f106103f557610100808354040283529160200191610420565b820191906000526020600020905b81548152906001019060200180831161040357829003601f168201915b505050505081565b6104306109dd565b600360008381526020019081526020016000206060604051908101604052908160008201548152602001600182018054600181600116156101000203166002900480601f0160208091040260200160405190810160405280929190818152602001828054600181600116156101000203166002900480156104f25780601f106104c7576101008083540402835291602001916104f2565b820191906000526020600020905b8154815290600101906020018083116104d557829003601f168201915b5050505050815260200160028201548152505090506000600160009054906101000a900473ffffffffffffffffffffffffffffffffffffffff169050600082600001511180156105485750600254826000015111155b151561055357600080fd5b8160400151341015151561056657600080fd5b3373ffffffffffffffffffffffffffffffffffffffff168173ffffffffffffffffffffffffffffffffffffffff16141515156105a157600080fd5b8073ffffffffffffffffffffffffffffffffffffffff166108fc349081150290604051600060405180830381858888f193505050501580156105e7573d6000803e3d6000fd5b507fa3b4a36767461104bd3c1561170fdd7223732be4f938fb7d8bdfa58a7271c72b600254836020015184604001516040518084815260200180602001838152602001828103825284818151815260200191508051906020019080838360005b83811015610662578082015181840152602081019050610647565b50505050905090810190601f16801561068f5780820380516001836020036101000a031916815260200191505b5094505050505060405180910390a1505050565b6003602052806000526040600020600091509050806000015490806001018054600181600116156101000203166002900480601f0160208091040260200160405190810160405280929190818152602001828054600181600116156101000203166002900480156107555780601f1061072a57610100808354040283529160200191610755565b820191906000526020600020905b81548152906001019060200180831161073857829003601f168201915b5050505050908060020154905083565b600160009054906101000a900473ffffffffffffffffffffffffffffffffffffffff1681565b600160009054906101000a900473ffffffffffffffffffffffffffffffffffffffff1673ffffffffffffffffffffffffffffffffffffffff163373ffffffffffffffffffffffffffffffffffffffff161415156107e757600080fd5b8073ffffffffffffffffffffffffffffffffffffffff166108fc349081150290604051600060405180830381858888f1935050505015801561082d573d6000803e3d6000fd5b5050565b60025481565b600160009054906101000a900473ffffffffffffffffffffffffffffffffffffffff1673ffffffffffffffffffffffffffffffffffffffff163373ffffffffffffffffffffffffffffffffffffffff1614151561089357600080fd5b600082511115156108a357600080fd5b6000811115156108b257600080fd5b60026000815480929190600101919050555060606040519081016040528060025481526020018381526020018281525060036000600254815260200190815260200160002060008201518160000155602082015181600101908051906020019061091d9291906109ff565b50604082015181600201559050507f418d4005ee80a6584eef7f51de08850f7f79c3e7b464f15ef3f236423d964b0860025483836040518084815260200180602001838152602001828103825284818151815260200191508051906020019080838360005b8381101561099d578082015181840152602081019050610982565b50505050905090810190601f1680156109ca5780820380516001836020036101000a031916815260200191505b5094505050505060405180910390a15050565b6060604051908101604052806000815260200160608152602001600081525090565b828054600181600116156101000203166002900490600052602060002090601f016020900481019282601f10610a4057805160ff1916838001178555610a6e565b82800160010185558215610a6e579182015b82811115610a6d578251825591602001919060010190610a52565b5b509050610a7b9190610a7f565b5090565b610aa191905b80821115610a9d576000816000905550600101610a85565b5090565b9056fea165627a7a723058202fc950b0a0d495c99c64a67f8ae285ebc4d7a92c8b0aa6f96d62bdfd1d8b63ae0029",
  "source": "pragma solidity ^0.5.0;\r\n\r\ncontract Marketplace {\r\n    string public name;\r\n    address payable public owner;\r\n    uint public productCount = 0;\r\n    mapping(uint => Product) public products;\r\n\r\n    struct Product {\r\n        uint id;\r\n        string name;\r\n        uint price;\r\n    }\r\n\r\n    event ProductCreated(\r\n        uint id,\r\n        string name,\r\n        uint price\r\n    );\r\n\r\n    event ProductPurchased(\r\n        uint id,\r\n        string name,\r\n        uint price\r\n    );\r\n\r\n    modifier onlyOwner {\r\n        require(msg.sender == owner);\r\n        _;\r\n    }\r\n\r\n    constructor() public {\r\n        name = \"O-Two market place\";\r\n        owner = msg.sender;\r\n    }\r\n\r\n    function createProduct(string memory _name, uint _price) public onlyOwner {\r\n        require(bytes(_name).length > 0); //require valid name\r\n        require(_price > 0);\r\n\r\n        //Increment produt count\r\n        productCount++;\r\n\r\n        //Create product\r\n        products[productCount] = Product(productCount,_name,_price);\r\n\r\n        //Trigger an event\r\n        emit ProductCreated(productCount, _name, _price);\r\n    }\r\n\r\n    function receiveProductAndPay(uint _id) public payable{\r\n        //Fetch the product\r\n        Product memory _product = products[_id]; //memory --> assigning it to a local variable\r\n        //Fetch the owner\r\n        address payable _seller = owner;\r\n        // Make sure the product has a valid id\r\n        require(_product.id > 0 && _product.id <= productCount);\r\n        // Require that there is enough Ether in the transaction\r\n        require(msg.value >= _product.price);\r\n        \r\n        // Require that the buyer is not the seller\r\n        require(_seller != msg.sender);\r\n        \r\n        // Pay the seller by sending them ether\r\n        address(_seller).transfer(msg.value);\r\n\r\n        //Trigger an event\r\n        emit ProductPurchased(productCount, _product.name, _product.price);\r\n    }\r\n\r\n    function rewardCoinsToUser(uint _user) public payable onlyOwner{\r\n\r\n        //Pay the user from the owner\r\n        address(_user).transfer(msg.value);\r\n    }\r\n\r\n}",
  "sourcePath": "C:/Users/biley/Desktop/HACKS/nits-hacks-2022/src/contracts/Marketplace.sol",
  "compiler": {
    "name": "solc",
    "version": "0.5.0+commit.1d4f565a.Emscripten.clang"
  },
  "schemaVersion": "3.0.2",
  "updatedAt": "2022-10-21T23:59:22.705Z",
  "devdoc": {
    "methods": {}
  },
  "userdoc": {
    "methods": {}
  }
}